{
  "_format": "hh-sol-artifact-1",
  "contractName": "EtherifyPlaylist",
  "sourceName": "contracts/EtherifyPlaylist.sol",
  "abi": [
    {
      "inputs": [],
      "stateMutability": "nonpayable",
      "type": "constructor"
    },
    {
      "anonymous": false,
      "inputs": [
        {
          "indexed": true,
          "internalType": "address",
          "name": "addr",
          "type": "address"
        },
        {
          "indexed": false,
          "internalType": "uint256",
          "name": "id",
          "type": "uint256"
        },
        {
          "indexed": false,
          "internalType": "uint256",
          "name": "timestamp",
          "type": "uint256"
        }
      ],
      "name": "LikedTrack",
      "type": "event"
    },
    {
      "anonymous": false,
      "inputs": [
        {
          "indexed": true,
          "internalType": "address",
          "name": "addr",
          "type": "address"
        },
        {
          "indexed": false,
          "internalType": "uint256",
          "name": "id",
          "type": "uint256"
        },
        {
          "indexed": false,
          "internalType": "string",
          "name": "spotifyUri",
          "type": "string"
        },
        {
          "indexed": false,
          "internalType": "uint256",
          "name": "timestamp",
          "type": "uint256"
        }
      ],
      "name": "TrackAdded",
      "type": "event"
    },
    {
      "anonymous": false,
      "inputs": [
        {
          "indexed": true,
          "internalType": "address",
          "name": "addr",
          "type": "address"
        },
        {
          "indexed": false,
          "internalType": "uint256",
          "name": "id",
          "type": "uint256"
        },
        {
          "indexed": false,
          "internalType": "uint256",
          "name": "timestamp",
          "type": "uint256"
        }
      ],
      "name": "UnlikedTrack",
      "type": "event"
    },
    {
      "inputs": [
        {
          "internalType": "string",
          "name": "_spotifyUri",
          "type": "string"
        }
      ],
      "name": "addTrack",
      "outputs": [],
      "stateMutability": "nonpayable",
      "type": "function"
    },
    {
      "inputs": [
        {
          "internalType": "uint256",
          "name": "_trackId",
          "type": "uint256"
        }
      ],
      "name": "doILikeTrack",
      "outputs": [
        {
          "internalType": "bool",
          "name": "",
          "type": "bool"
        }
      ],
      "stateMutability": "view",
      "type": "function"
    },
    {
      "inputs": [
        {
          "internalType": "address",
          "name": "_addr",
          "type": "address"
        },
        {
          "internalType": "uint256",
          "name": "_trackId",
          "type": "uint256"
        }
      ],
      "name": "doesUserLikeTrack",
      "outputs": [
        {
          "internalType": "bool",
          "name": "",
          "type": "bool"
        }
      ],
      "stateMutability": "view",
      "type": "function"
    },
    {
      "inputs": [
        {
          "internalType": "uint256",
          "name": "_trackId",
          "type": "uint256"
        }
      ],
      "name": "getLikesForTrack",
      "outputs": [
        {
          "internalType": "uint256",
          "name": "",
          "type": "uint256"
        }
      ],
      "stateMutability": "view",
      "type": "function"
    },
    {
      "inputs": [],
      "name": "getMyTracks",
      "outputs": [
        {
          "components": [
            {
              "internalType": "address",
              "name": "addr",
              "type": "address"
            },
            {
              "internalType": "uint256",
              "name": "id",
              "type": "uint256"
            },
            {
              "internalType": "string",
              "name": "spotifyLink",
              "type": "string"
            },
            {
              "internalType": "uint256",
              "name": "timestamp",
              "type": "uint256"
            }
          ],
          "internalType": "struct EtherifyPlaylist.EtherifyTrack[]",
          "name": "",
          "type": "tuple[]"
        }
      ],
      "stateMutability": "view",
      "type": "function"
    },
    {
      "inputs": [],
      "name": "getPlaylist",
      "outputs": [
        {
          "components": [
            {
              "internalType": "address",
              "name": "addr",
              "type": "address"
            },
            {
              "internalType": "uint256",
              "name": "id",
              "type": "uint256"
            },
            {
              "internalType": "string",
              "name": "spotifyLink",
              "type": "string"
            },
            {
              "internalType": "uint256",
              "name": "timestamp",
              "type": "uint256"
            }
          ],
          "internalType": "struct EtherifyPlaylist.EtherifyTrack[]",
          "name": "",
          "type": "tuple[]"
        }
      ],
      "stateMutability": "view",
      "type": "function"
    },
    {
      "inputs": [],
      "name": "getTotalTracks",
      "outputs": [
        {
          "internalType": "uint256",
          "name": "",
          "type": "uint256"
        }
      ],
      "stateMutability": "view",
      "type": "function"
    },
    {
      "inputs": [
        {
          "internalType": "address",
          "name": "_addr",
          "type": "address"
        }
      ],
      "name": "getTracksByAddress",
      "outputs": [
        {
          "components": [
            {
              "internalType": "address",
              "name": "addr",
              "type": "address"
            },
            {
              "internalType": "uint256",
              "name": "id",
              "type": "uint256"
            },
            {
              "internalType": "string",
              "name": "spotifyLink",
              "type": "string"
            },
            {
              "internalType": "uint256",
              "name": "timestamp",
              "type": "uint256"
            }
          ],
          "internalType": "struct EtherifyPlaylist.EtherifyTrack[]",
          "name": "",
          "type": "tuple[]"
        }
      ],
      "stateMutability": "view",
      "type": "function"
    },
    {
      "inputs": [
        {
          "internalType": "uint256",
          "name": "_trackId",
          "type": "uint256"
        }
      ],
      "name": "likeTrack",
      "outputs": [],
      "stateMutability": "nonpayable",
      "type": "function"
    },
    {
      "inputs": [
        {
          "internalType": "uint256",
          "name": "_trackId",
          "type": "uint256"
        }
      ],
      "name": "unlikeTrack",
      "outputs": [],
      "stateMutability": "nonpayable",
      "type": "function"
    }
  ],
  "bytecode": "0x60806040523480156200001157600080fd5b506200005d6040518060400160405280601d81526020017f457468657269667920706c61796c69737420696e697469616c697a65640000008152506200006360201b62000bd11760201c565b620001f7565b62000103816040516024016200007a919062000170565b6040516020818303038152906040527f41304fac000000000000000000000000000000000000000000000000000000007bffffffffffffffffffffffffffffffffffffffffffffffffffffffff19166020820180517bffffffffffffffffffffffffffffffffffffffffffffffffffffffff83818316178352505050506200010660201b60201c565b50565b60008151905060006a636f6e736f6c652e6c6f679050602083016000808483855afa5050505050565b60006200013c8262000194565b6200014881856200019f565b93506200015a818560208601620001b0565b6200016581620001e6565b840191505092915050565b600060208201905081810360008301526200018c81846200012f565b905092915050565b600081519050919050565b600082825260208201905092915050565b60005b83811015620001d0578082015181840152602081019050620001b3565b83811115620001e0576000848401525b50505050565b6000601f19601f8301169050919050565b61186980620002076000396000f3fe608060405234801561001057600080fd5b506004361061009e5760003560e01c806342cb0f4a1161006657806342cb0f4a1461015b5780639229824e1461018b5780639854aea3146101bb578063bf0c4bf1146101d7578063ed0aad4d146101f55761009e565b80630430476d146100a35780630e62ced5146100d35780632faa22b0146100f1578063300999ce146101215780633cf144261461013d575b600080fd5b6100bd60048036038101906100b89190611045565b610211565b6040516100ca919061139a565b60405180910390f35b6100db61026d565b6040516100e8919061125d565b60405180910390f35b61010b60048036038101906101069190611045565b610406565b604051610118919061127f565b60405180910390f35b61013b60048036038101906101369190611045565b610419565b005b61014561059d565b604051610152919061125d565b60405180910390f35b61017560048036038101906101709190610fc8565b6105ad565b604051610182919061127f565b60405180910390f35b6101a560048036038101906101a09190610f9f565b610638565b6040516101b2919061125d565b60405180910390f35b6101d560048036038101906101d09190611045565b6107f4565b005b6101df610979565b6040516101ec919061139a565b60405180910390f35b61020f600480360381019061020a9190611004565b6109ad565b005b60006102526040518060400160405280601b81526020017f47657474696e67206c696b657320666f7220747261636b2025642e000000000081525083610c6a565b60026000838152602001908152602001600020549050919050565b60606102ad6040518060400160405280601d81526020017f47657474696e67207468652063757272656e7420706c61796c6973742e000000815250610bd1565b6000805480602002602001604051908101604052809291908181526020016000905b828210156103fd57838290600052602060002090600402016040518060800160405290816000820160009054906101000a900473ffffffffffffffffffffffffffffffffffffffff1673ffffffffffffffffffffffffffffffffffffffff1673ffffffffffffffffffffffffffffffffffffffff16815260200160018201548152602001600282018054610362906115ec565b80601f016020809104026020016040519081016040528092919081815260200182805461038e906115ec565b80156103db5780601f106103b0576101008083540402835291602001916103db565b820191906000526020600020905b8154815290600101906020018083116103be57829003601f168201915b50505050508152602001600382015481525050815260200190600101906102cf565b50505050905090565b600061041233836105ad565b9050919050565b600360003373ffffffffffffffffffffffffffffffffffffffff1673ffffffffffffffffffffffffffffffffffffffff168152602001908152602001600020600082815260200190815260200160002060009054906101000a900460ff166104b6576040517f08c379a00000000000000000000000000000000000000000000000000000000081526004016104ad9061135a565b60405180910390fd5b60016002600083815260200190815260200160002060008282546104da919061152e565b925050819055506000600360003373ffffffffffffffffffffffffffffffffffffffff1673ffffffffffffffffffffffffffffffffffffffff168152602001908152602001600020600083815260200190815260200160002060006101000a81548160ff0219169083151502179055503373ffffffffffffffffffffffffffffffffffffffff167f9887712a88429058ed894bd5d8c3a51c7d1989212e960ef08a66f214307a456d82426040516105929291906113f3565b60405180910390a250565b60606105a833610638565b905090565b60006105d260405180606001604052806028815260200161180c602891398484610d06565b600360008473ffffffffffffffffffffffffffffffffffffffff1673ffffffffffffffffffffffffffffffffffffffff168152602001908152602001600020600083815260200190815260200160002060009054906101000a900460ff16905092915050565b606061065c6040518060600160405280602781526020016117ba6027913983610da5565b600160008373ffffffffffffffffffffffffffffffffffffffff1673ffffffffffffffffffffffffffffffffffffffff168152602001908152602001600020805480602002602001604051908101604052809291908181526020016000905b828210156107e957838290600052602060002090600402016040518060800160405290816000820160009054906101000a900473ffffffffffffffffffffffffffffffffffffffff1673ffffffffffffffffffffffffffffffffffffffff1673ffffffffffffffffffffffffffffffffffffffff1681526020016001820154815260200160028201805461074e906115ec565b80601f016020809104026020016040519081016040528092919081815260200182805461077a906115ec565b80156107c75780601f1061079c576101008083540402835291602001916107c7565b820191906000526020600020905b8154815290600101906020018083116107aa57829003601f168201915b50505050508152602001600382015481525050815260200190600101906106bb565b505050509050919050565b600360003373ffffffffffffffffffffffffffffffffffffffff1673ffffffffffffffffffffffffffffffffffffffff168152602001908152602001600020600082815260200190815260200160002060009054906101000a900460ff1615610892576040517f08c379a00000000000000000000000000000000000000000000000000000000081526004016108899061137a565b60405180910390fd5b60016002600083815260200190815260200160002060008282546108b691906114d8565b925050819055506001600360003373ffffffffffffffffffffffffffffffffffffffff1673ffffffffffffffffffffffffffffffffffffffff168152602001908152602001600020600083815260200190815260200160002060006101000a81548160ff0219169083151502179055503373ffffffffffffffffffffffffffffffffffffffff167fa76f0c604fd4eeaf7323a750cbedbb429d12f068b607ad09b8d9fa61496d5b62824260405161096e9291906113f3565b60405180910390a250565b60006109a26040518060600160405280602b81526020016117e1602b9139600080549050610c6a565b600080549050905090565b600080805490509050600060405180608001604052803373ffffffffffffffffffffffffffffffffffffffff168152602001838152602001848152602001428152509050600081908060018154018082558091505060019003906000526020600020906004020160009091909190915060008201518160000160006101000a81548173ffffffffffffffffffffffffffffffffffffffff021916908373ffffffffffffffffffffffffffffffffffffffff160217905550602082015181600101556040820151816002019080519060200190610a8a929190610e6a565b50606082015181600301555050600160003373ffffffffffffffffffffffffffffffffffffffff1673ffffffffffffffffffffffffffffffffffffffff16815260200190815260200160002081908060018154018082558091505060019003906000526020600020906004020160009091909190915060008201518160000160006101000a81548173ffffffffffffffffffffffffffffffffffffffff021916908373ffffffffffffffffffffffffffffffffffffffff160217905550602082015181600101556040820151816002019080519060200190610b6d929190610e6a565b506060820151816003015550503373ffffffffffffffffffffffffffffffffffffffff167f8fac479a04c98a41333d8ea80b9019748f7abefc8fc7be90f09ab09d3899a815838542604051610bc4939291906113b5565b60405180910390a2505050565b610c6781604051602401610be5919061129a565b6040516020818303038152906040527f41304fac000000000000000000000000000000000000000000000000000000007bffffffffffffffffffffffffffffffffffffffffffffffffffffffff19166020820180517bffffffffffffffffffffffffffffffffffffffffffffffffffffffff8381831617835250505050610e41565b50565b610d028282604051602401610c8092919061132a565b6040516020818303038152906040527f9710a9d0000000000000000000000000000000000000000000000000000000007bffffffffffffffffffffffffffffffffffffffffffffffffffffffff19166020820180517bffffffffffffffffffffffffffffffffffffffffffffffffffffffff8381831617835250505050610e41565b5050565b610da0838383604051602401610d1e939291906112ec565b6040516020818303038152906040527f07c81217000000000000000000000000000000000000000000000000000000007bffffffffffffffffffffffffffffffffffffffffffffffffffffffff19166020820180517bffffffffffffffffffffffffffffffffffffffffffffffffffffffff8381831617835250505050610e41565b505050565b610e3d8282604051602401610dbb9291906112bc565b6040516020818303038152906040527f319af333000000000000000000000000000000000000000000000000000000007bffffffffffffffffffffffffffffffffffffffffffffffffffffffff19166020820180517bffffffffffffffffffffffffffffffffffffffffffffffffffffffff8381831617835250505050610e41565b5050565b60008151905060006a636f6e736f6c652e6c6f679050602083016000808483855afa5050505050565b828054610e76906115ec565b90600052602060002090601f016020900481019282610e985760008555610edf565b82601f10610eb157805160ff1916838001178555610edf565b82800160010185558215610edf579182015b82811115610ede578251825591602001919060010190610ec3565b5b509050610eec9190610ef0565b5090565b5b80821115610f09576000816000905550600101610ef1565b5090565b6000610f20610f1b84611441565b61141c565b905082815260208101848484011115610f3857600080fd5b610f438482856115aa565b509392505050565b600081359050610f5a8161178b565b92915050565b600082601f830112610f7157600080fd5b8135610f81848260208601610f0d565b91505092915050565b600081359050610f99816117a2565b92915050565b600060208284031215610fb157600080fd5b6000610fbf84828501610f4b565b91505092915050565b60008060408385031215610fdb57600080fd5b6000610fe985828601610f4b565b9250506020610ffa85828601610f8a565b9150509250929050565b60006020828403121561101657600080fd5b600082013567ffffffffffffffff81111561103057600080fd5b61103c84828501610f60565b91505092915050565b60006020828403121561105757600080fd5b600061106584828501610f8a565b91505092915050565b600061107a83836111dc565b905092915050565b61108b81611562565b82525050565b61109a81611562565b82525050565b60006110ab82611482565b6110b581856114a5565b9350836020820285016110c785611472565b8060005b8581101561110357848403895281516110e4858261106e565b94506110ef83611498565b925060208a019950506001810190506110cb565b50829750879550505050505092915050565b61111e81611574565b82525050565b600061112f8261148d565b61113981856114b6565b93506111498185602086016115b9565b611152816116dc565b840191505092915050565b60006111688261148d565b61117281856114c7565b93506111828185602086016115b9565b61118b816116dc565b840191505092915050565b60006111a36027836114c7565b91506111ae826116ed565b604082019050919050565b60006111c66028836114c7565b91506111d18261173c565b604082019050919050565b60006080830160008301516111f46000860182611082565b506020830151611207602086018261123f565b506040830151848203604086015261121f8282611124565b9150506060830151611234606086018261123f565b508091505092915050565b611248816115a0565b82525050565b611257816115a0565b82525050565b6000602082019050818103600083015261127781846110a0565b905092915050565b60006020820190506112946000830184611115565b92915050565b600060208201905081810360008301526112b4818461115d565b905092915050565b600060408201905081810360008301526112d6818561115d565b90506112e56020830184611091565b9392505050565b60006060820190508181036000830152611306818661115d565b90506113156020830185611091565b611322604083018461124e565b949350505050565b60006040820190508181036000830152611344818561115d565b9050611353602083018461124e565b9392505050565b6000602082019050818103600083015261137381611196565b9050919050565b60006020820190508181036000830152611393816111b9565b9050919050565b60006020820190506113af600083018461124e565b92915050565b60006060820190506113ca600083018661124e565b81810360208301526113dc818561115d565b90506113eb604083018461124e565b949350505050565b6000604082019050611408600083018561124e565b611415602083018461124e565b9392505050565b6000611426611437565b9050611432828261161e565b919050565b6000604051905090565b600067ffffffffffffffff82111561145c5761145b6116ad565b5b611465826116dc565b9050602081019050919050565b6000819050602082019050919050565b600081519050919050565b600081519050919050565b6000602082019050919050565b600082825260208201905092915050565b600082825260208201905092915050565b600082825260208201905092915050565b60006114e3826115a0565b91506114ee836115a0565b9250827fffffffffffffffffffffffffffffffffffffffffffffffffffffffffffffffff038211156115235761152261164f565b5b828201905092915050565b6000611539826115a0565b9150611544836115a0565b9250828210156115575761155661164f565b5b828203905092915050565b600061156d82611580565b9050919050565b60008115159050919050565b600073ffffffffffffffffffffffffffffffffffffffff82169050919050565b6000819050919050565b82818337600083830152505050565b60005b838110156115d75780820151818401526020810190506115bc565b838111156115e6576000848401525b50505050565b6000600282049050600182168061160457607f821691505b602082108114156116185761161761167e565b5b50919050565b611627826116dc565b810181811067ffffffffffffffff82111715611646576116456116ad565b5b80604052505050565b7f4e487b7100000000000000000000000000000000000000000000000000000000600052601160045260246000fd5b7f4e487b7100000000000000000000000000000000000000000000000000000000600052602260045260246000fd5b7f4e487b7100000000000000000000000000000000000000000000000000000000600052604160045260246000fd5b6000601f19601f8301169050919050565b7f43616e277420756e6c696b65206120747261636b20796f7520686176656e277460008201527f206c696b65642100000000000000000000000000000000000000000000000000602082015250565b7f43616e2774206c696b65206120747261636b20796f7527766520616c7265616460008201527f79206c696b656421000000000000000000000000000000000000000000000000602082015250565b61179481611562565b811461179f57600080fd5b50565b6117ab816115a0565b81146117b657600080fd5b5056fe47657474696e6720747261636b73207375626d697474656420627920616464726573732025732e54686572652061726520256420746f74616c20747261636b7320696e2074686520706c61796c697374200a436865636b696e6720776865746865722075736572202573206c696b657320747261636b2025642ea2646970667358221220fe8987930d31fb8268590daddf427304ee947b96e59cfacc4e08068e860ce97464736f6c63430008040033",
  "linkReferences": {},
  "deployedLinkReferences": {}
}