{
  "_format": "hh-sol-artifact-1",
  "contractName": "EtherifyPlaylist",
  "sourceName": "contracts/EtherifyPlaylist.sol",
  "abi": [
    {
      "inputs": [],
      "stateMutability": "payable",
      "type": "constructor"
    },
    {
      "anonymous": false,
      "inputs": [
        {
          "indexed": true,
          "internalType": "address",
          "name": "addr",
          "type": "address"
        },
        {
          "indexed": false,
          "internalType": "uint256",
          "name": "id",
          "type": "uint256"
        },
        {
          "indexed": false,
          "internalType": "uint256",
          "name": "timestamp",
          "type": "uint256"
        }
      ],
      "name": "LikedTrack",
      "type": "event"
    },
    {
      "anonymous": false,
      "inputs": [
        {
          "indexed": true,
          "internalType": "address",
          "name": "addr",
          "type": "address"
        },
        {
          "indexed": false,
          "internalType": "uint256",
          "name": "id",
          "type": "uint256"
        },
        {
          "indexed": false,
          "internalType": "string",
          "name": "spotifyUri",
          "type": "string"
        },
        {
          "indexed": false,
          "internalType": "uint256",
          "name": "timestamp",
          "type": "uint256"
        }
      ],
      "name": "TrackAdded",
      "type": "event"
    },
    {
      "anonymous": false,
      "inputs": [
        {
          "indexed": true,
          "internalType": "address",
          "name": "addr",
          "type": "address"
        },
        {
          "indexed": false,
          "internalType": "uint256",
          "name": "id",
          "type": "uint256"
        },
        {
          "indexed": false,
          "internalType": "uint256",
          "name": "timestamp",
          "type": "uint256"
        }
      ],
      "name": "UnlikedTrack",
      "type": "event"
    },
    {
      "inputs": [
        {
          "internalType": "string",
          "name": "_spotifyUri",
          "type": "string"
        }
      ],
      "name": "addTrack",
      "outputs": [],
      "stateMutability": "nonpayable",
      "type": "function"
    },
    {
      "inputs": [
        {
          "internalType": "uint256",
          "name": "_trackId",
          "type": "uint256"
        }
      ],
      "name": "doILikeTrack",
      "outputs": [
        {
          "internalType": "bool",
          "name": "",
          "type": "bool"
        }
      ],
      "stateMutability": "view",
      "type": "function"
    },
    {
      "inputs": [
        {
          "internalType": "address",
          "name": "_addr",
          "type": "address"
        },
        {
          "internalType": "uint256",
          "name": "_trackId",
          "type": "uint256"
        }
      ],
      "name": "doesUserLikeTrack",
      "outputs": [
        {
          "internalType": "bool",
          "name": "",
          "type": "bool"
        }
      ],
      "stateMutability": "view",
      "type": "function"
    },
    {
      "inputs": [
        {
          "internalType": "uint256",
          "name": "_trackId",
          "type": "uint256"
        }
      ],
      "name": "getLikesForTrack",
      "outputs": [
        {
          "internalType": "uint256",
          "name": "",
          "type": "uint256"
        }
      ],
      "stateMutability": "view",
      "type": "function"
    },
    {
      "inputs": [],
      "name": "getMyTracks",
      "outputs": [
        {
          "components": [
            {
              "internalType": "address",
              "name": "addr",
              "type": "address"
            },
            {
              "internalType": "uint256",
              "name": "id",
              "type": "uint256"
            },
            {
              "internalType": "string",
              "name": "spotifyUri",
              "type": "string"
            },
            {
              "internalType": "uint256",
              "name": "timestamp",
              "type": "uint256"
            }
          ],
          "internalType": "struct EtherifyPlaylist.EtherifyTrack[]",
          "name": "",
          "type": "tuple[]"
        }
      ],
      "stateMutability": "view",
      "type": "function"
    },
    {
      "inputs": [],
      "name": "getPlaylist",
      "outputs": [
        {
          "components": [
            {
              "internalType": "address",
              "name": "addr",
              "type": "address"
            },
            {
              "internalType": "uint256",
              "name": "id",
              "type": "uint256"
            },
            {
              "internalType": "string",
              "name": "spotifyUri",
              "type": "string"
            },
            {
              "internalType": "uint256",
              "name": "timestamp",
              "type": "uint256"
            }
          ],
          "internalType": "struct EtherifyPlaylist.EtherifyTrack[]",
          "name": "",
          "type": "tuple[]"
        }
      ],
      "stateMutability": "view",
      "type": "function"
    },
    {
      "inputs": [],
      "name": "getTotalTracks",
      "outputs": [
        {
          "internalType": "uint256",
          "name": "",
          "type": "uint256"
        }
      ],
      "stateMutability": "view",
      "type": "function"
    },
    {
      "inputs": [
        {
          "internalType": "address",
          "name": "_addr",
          "type": "address"
        }
      ],
      "name": "getTracksByAddress",
      "outputs": [
        {
          "components": [
            {
              "internalType": "address",
              "name": "addr",
              "type": "address"
            },
            {
              "internalType": "uint256",
              "name": "id",
              "type": "uint256"
            },
            {
              "internalType": "string",
              "name": "spotifyUri",
              "type": "string"
            },
            {
              "internalType": "uint256",
              "name": "timestamp",
              "type": "uint256"
            }
          ],
          "internalType": "struct EtherifyPlaylist.EtherifyTrack[]",
          "name": "",
          "type": "tuple[]"
        }
      ],
      "stateMutability": "view",
      "type": "function"
    },
    {
      "inputs": [
        {
          "internalType": "uint256",
          "name": "_trackId",
          "type": "uint256"
        }
      ],
      "name": "likeTrack",
      "outputs": [],
      "stateMutability": "nonpayable",
      "type": "function"
    },
    {
      "inputs": [
        {
          "internalType": "uint256",
          "name": "_trackId",
          "type": "uint256"
        }
      ],
      "name": "unlikeTrack",
      "outputs": [],
      "stateMutability": "nonpayable",
      "type": "function"
    }
  ],
  "bytecode": "0x60806040526200004f6040518060400160405280601d81526020017f457468657269667920706c61796c69737420696e697469616c697a65640000008152506200007760201b62000ec61760201c565b606444426200005f9190620001c4565b6200006b919062000261565b60008190555062000308565b62000117816040516024016200008e919062000184565b6040516020818303038152906040527f41304fac000000000000000000000000000000000000000000000000000000007bffffffffffffffffffffffffffffffffffffffffffffffffffffffff19166020820180517bffffffffffffffffffffffffffffffffffffffffffffffffffffffff83818316178352505050506200011a60201b60201c565b50565b60008151905060006a636f6e736f6c652e6c6f679050602083016000808483855afa5050505050565b60006200015082620001a8565b6200015c8185620001b3565b93506200016e8185602086016200022b565b6200017981620002f7565b840191505092915050565b60006020820190508181036000830152620001a0818462000143565b905092915050565b600081519050919050565b600082825260208201905092915050565b6000620001d18262000221565b9150620001de8362000221565b9250827fffffffffffffffffffffffffffffffffffffffffffffffffffffffffffffffff0382111562000216576200021562000299565b5b828201905092915050565b6000819050919050565b60005b838110156200024b5780820151818401526020810190506200022e565b838111156200025b576000848401525b50505050565b60006200026e8262000221565b91506200027b8362000221565b9250826200028e576200028d620002c8565b5b828206905092915050565b7f4e487b7100000000000000000000000000000000000000000000000000000000600052601160045260246000fd5b7f4e487b7100000000000000000000000000000000000000000000000000000000600052601260045260246000fd5b6000601f19601f8301169050919050565b611e7980620003186000396000f3fe608060405234801561001057600080fd5b506004361061009e5760003560e01c806342cb0f4a1161006657806342cb0f4a1461015b5780639229824e1461018b5780639854aea3146101bb578063bf0c4bf1146101d7578063ed0aad4d146101f55761009e565b80630430476d146100a35780630e62ced5146100d35780632faa22b0146100f1578063300999ce146101215780633cf144261461013d575b600080fd5b6100bd60048036038101906100b8919061133a565b610211565b6040516100ca919061181b565b60405180910390f35b6100db61026d565b6040516100e8919061165e565b60405180910390f35b61010b6004803603810190610106919061133a565b610406565b6040516101189190611680565b60405180910390f35b61013b6004803603810190610136919061133a565b610419565b005b61014561059d565b604051610152919061165e565b60405180910390f35b610175600480360381019061017091906112bd565b6105ad565b6040516101829190611680565b60405180910390f35b6101a560048036038101906101a09190611294565b610638565b6040516101b2919061165e565b60405180910390f35b6101d560048036038101906101d0919061133a565b6107f4565b005b6101df610979565b6040516101ec919061181b565b60405180910390f35b61020f600480360381019061020a91906112f9565b6109ad565b005b60006102526040518060400160405280601b81526020017f47657474696e67206c696b657320666f7220747261636b2025642e000000000081525083610f5f565b60036000838152602001908152602001600020549050919050565b60606102ad6040518060400160405280601d81526020017f47657474696e67207468652063757272656e7420706c61796c6973742e000000815250610ec6565b6001805480602002602001604051908101604052809291908181526020016000905b828210156103fd57838290600052602060002090600402016040518060800160405290816000820160009054906101000a900473ffffffffffffffffffffffffffffffffffffffff1673ffffffffffffffffffffffffffffffffffffffff1673ffffffffffffffffffffffffffffffffffffffff1681526020016001820154815260200160028201805461036290611a83565b80601f016020809104026020016040519081016040528092919081815260200182805461038e90611a83565b80156103db5780601f106103b0576101008083540402835291602001916103db565b820191906000526020600020905b8154815290600101906020018083116103be57829003601f168201915b50505050508152602001600382015481525050815260200190600101906102cf565b50505050905090565b600061041233836105ad565b9050919050565b600460003373ffffffffffffffffffffffffffffffffffffffff1673ffffffffffffffffffffffffffffffffffffffff168152602001908152602001600020600082815260200190815260200160002060009054906101000a900460ff166104b6576040517f08c379a00000000000000000000000000000000000000000000000000000000081526004016104ad906117bb565b60405180910390fd5b60016003600083815260200190815260200160002060008282546104da91906119c5565b925050819055506000600460003373ffffffffffffffffffffffffffffffffffffffff1673ffffffffffffffffffffffffffffffffffffffff168152602001908152602001600020600083815260200190815260200160002060006101000a81548160ff0219169083151502179055503373ffffffffffffffffffffffffffffffffffffffff167f9887712a88429058ed894bd5d8c3a51c7d1989212e960ef08a66f214307a456d8242604051610592929190611874565b60405180910390a250565b60606105a833610638565b905090565b60006105d2604051806060016040528060288152602001611e1c602891398484610ffb565b600460008473ffffffffffffffffffffffffffffffffffffffff1673ffffffffffffffffffffffffffffffffffffffff168152602001908152602001600020600083815260200190815260200160002060009054906101000a900460ff16905092915050565b606061065c604051806060016040528060278152602001611dca602791398361109a565b600260008373ffffffffffffffffffffffffffffffffffffffff1673ffffffffffffffffffffffffffffffffffffffff168152602001908152602001600020805480602002602001604051908101604052809291908181526020016000905b828210156107e957838290600052602060002090600402016040518060800160405290816000820160009054906101000a900473ffffffffffffffffffffffffffffffffffffffff1673ffffffffffffffffffffffffffffffffffffffff1673ffffffffffffffffffffffffffffffffffffffff1681526020016001820154815260200160028201805461074e90611a83565b80601f016020809104026020016040519081016040528092919081815260200182805461077a90611a83565b80156107c75780601f1061079c576101008083540402835291602001916107c7565b820191906000526020600020905b8154815290600101906020018083116107aa57829003601f168201915b50505050508152602001600382015481525050815260200190600101906106bb565b505050509050919050565b600460003373ffffffffffffffffffffffffffffffffffffffff1673ffffffffffffffffffffffffffffffffffffffff168152602001908152602001600020600082815260200190815260200160002060009054906101000a900460ff1615610892576040517f08c379a0000000000000000000000000000000000000000000000000000000008152600401610889906117db565b60405180910390fd5b60016003600083815260200190815260200160002060008282546108b6919061196f565b925050819055506001600460003373ffffffffffffffffffffffffffffffffffffffff1673ffffffffffffffffffffffffffffffffffffffff168152602001908152602001600020600083815260200190815260200160002060006101000a81548160ff0219169083151502179055503373ffffffffffffffffffffffffffffffffffffffff167fa76f0c604fd4eeaf7323a750cbedbb429d12f068b607ad09b8d9fa61496d5b62824260405161096e929190611874565b60405180910390a250565b60006109a26040518060600160405280602b8152602001611df1602b9139600180549050610f5f565b600180549050905090565b42610258600560003373ffffffffffffffffffffffffffffffffffffffff1673ffffffffffffffffffffffffffffffffffffffff168152602001908152602001600020546109fb919061196f565b10610a3b576040517f08c379a0000000000000000000000000000000000000000000000000000000008152600401610a32906117fb565b60405180910390fd5b600681604051610a4b9190611632565b908152602001604051809103902060009054906101000a900460ff1615610aa7576040517f08c379a0000000000000000000000000000000000000000000000000000000008152600401610a9e9061179b565b60405180910390fd5b42600560003373ffffffffffffffffffffffffffffffffffffffff1673ffffffffffffffffffffffffffffffffffffffff168152602001908152602001600020819055506001600682604051610afd9190611632565b908152602001604051809103902060006101000a81548160ff02191690831515021790555060646000544244610b33919061196f565b610b3d919061196f565b610b479190611ae6565b60008190555060006001805490509050600060405180608001604052803373ffffffffffffffffffffffffffffffffffffffff168152602001838152602001848152602001428152509050600181908060018154018082558091505060019003906000526020600020906004020160009091909190915060008201518160000160006101000a81548173ffffffffffffffffffffffffffffffffffffffff021916908373ffffffffffffffffffffffffffffffffffffffff160217905550602082015181600101556040820151816002019080519060200190610c2b92919061115f565b50606082015181600301555050600260003373ffffffffffffffffffffffffffffffffffffffff1673ffffffffffffffffffffffffffffffffffffffff16815260200190815260200160002081908060018154018082558091505060019003906000526020600020906004020160009091909190915060008201518160000160006101000a81548173ffffffffffffffffffffffffffffffffffffffff021916908373ffffffffffffffffffffffffffffffffffffffff160217905550602082015181600101556040820151816002019080519060200190610d0e92919061115f565b506060820151816003015550506000655af3107a40009050600a60005411158015610d395750478111155b15610e6e57610d7d6040518060400160405280601281526020017f257320776f6e20736f6d652065746865722100000000000000000000000000008152503361109a565b47811115610dc0576040517f08c379a0000000000000000000000000000000000000000000000000000000008152600401610db79061175b565b60405180910390fd5b60003373ffffffffffffffffffffffffffffffffffffffff1682604051610de690611649565b60006040518083038185875af1925050503d8060008114610e23576040519150601f19603f3d011682016040523d82523d6000602084013e610e28565b606091505b5050905080610e6c576040517f08c379a0000000000000000000000000000000000000000000000000000000008152600401610e639061177b565b60405180910390fd5b505b3373ffffffffffffffffffffffffffffffffffffffff167f8fac479a04c98a41333d8ea80b9019748f7abefc8fc7be90f09ab09d3899a815848642604051610eb893929190611836565b60405180910390a250505050565b610f5c81604051602401610eda919061169b565b6040516020818303038152906040527f41304fac000000000000000000000000000000000000000000000000000000007bffffffffffffffffffffffffffffffffffffffffffffffffffffffff19166020820180517bffffffffffffffffffffffffffffffffffffffffffffffffffffffff8381831617835250505050611136565b50565b610ff78282604051602401610f7592919061172b565b6040516020818303038152906040527f9710a9d0000000000000000000000000000000000000000000000000000000007bffffffffffffffffffffffffffffffffffffffffffffffffffffffff19166020820180517bffffffffffffffffffffffffffffffffffffffffffffffffffffffff8381831617835250505050611136565b5050565b611095838383604051602401611013939291906116ed565b6040516020818303038152906040527f07c81217000000000000000000000000000000000000000000000000000000007bffffffffffffffffffffffffffffffffffffffffffffffffffffffff19166020820180517bffffffffffffffffffffffffffffffffffffffffffffffffffffffff8381831617835250505050611136565b505050565b61113282826040516024016110b09291906116bd565b6040516020818303038152906040527f319af333000000000000000000000000000000000000000000000000000000007bffffffffffffffffffffffffffffffffffffffffffffffffffffffff19166020820180517bffffffffffffffffffffffffffffffffffffffffffffffffffffffff8381831617835250505050611136565b5050565b60008151905060006a636f6e736f6c652e6c6f679050602083016000808483855afa5050505050565b82805461116b90611a83565b90600052602060002090601f01602090048101928261118d57600085556111d4565b82601f106111a657805160ff19168380011785556111d4565b828001600101855582156111d4579182015b828111156111d35782518255916020019190600101906111b8565b5b5090506111e191906111e5565b5090565b5b808211156111fe5760008160009055506001016111e6565b5090565b6000611215611210846118c2565b61189d565b90508281526020810184848401111561122d57600080fd5b611238848285611a41565b509392505050565b60008135905061124f81611d9b565b92915050565b600082601f83011261126657600080fd5b8135611276848260208601611202565b91505092915050565b60008135905061128e81611db2565b92915050565b6000602082840312156112a657600080fd5b60006112b484828501611240565b91505092915050565b600080604083850312156112d057600080fd5b60006112de85828601611240565b92505060206112ef8582860161127f565b9150509250929050565b60006020828403121561130b57600080fd5b600082013567ffffffffffffffff81111561132557600080fd5b61133184828501611255565b91505092915050565b60006020828403121561134c57600080fd5b600061135a8482850161127f565b91505092915050565b600061136f83836115b1565b905092915050565b611380816119f9565b82525050565b61138f816119f9565b82525050565b60006113a082611903565b6113aa8185611926565b9350836020820285016113bc856118f3565b8060005b858110156113f857848403895281516113d98582611363565b94506113e483611919565b925060208a019950506001810190506113c0565b50829750879550505050505092915050565b61141381611a0b565b82525050565b60006114248261190e565b61142e8185611942565b935061143e818560208601611a50565b61144781611bd3565b840191505092915050565b600061145d8261190e565b6114678185611953565b9350611477818560208601611a50565b61148081611bd3565b840191505092915050565b60006114968261190e565b6114a08185611964565b93506114b0818560208601611a50565b80840191505092915050565b60006114c9603483611953565b91506114d482611be4565b604082019050919050565b60006114ec602783611953565b91506114f782611c33565b604082019050919050565b600061150f601a83611953565b915061151a82611c82565b602082019050919050565b6000611532602783611953565b915061153d82611cab565b604082019050919050565b6000611555602883611953565b915061156082611cfa565b604082019050919050565b6000611578600083611937565b915061158382611d49565b600082019050919050565b600061159b603283611953565b91506115a682611d4c565b604082019050919050565b60006080830160008301516115c96000860182611377565b5060208301516115dc6020860182611614565b50604083015184820360408601526115f48282611419565b91505060608301516116096060860182611614565b508091505092915050565b61161d81611a37565b82525050565b61162c81611a37565b82525050565b600061163e828461148b565b915081905092915050565b60006116548261156b565b9150819050919050565b600060208201905081810360008301526116788184611395565b905092915050565b6000602082019050611695600083018461140a565b92915050565b600060208201905081810360008301526116b58184611452565b905092915050565b600060408201905081810360008301526116d78185611452565b90506116e66020830184611386565b9392505050565b600060608201905081810360008301526117078186611452565b90506117166020830185611386565b6117236040830184611623565b949350505050565b600060408201905081810360008301526117458185611452565b90506117546020830184611623565b9392505050565b60006020820190508181036000830152611774816114bc565b9050919050565b60006020820190508181036000830152611794816114df565b9050919050565b600060208201905081810360008301526117b481611502565b9050919050565b600060208201905081810360008301526117d481611525565b9050919050565b600060208201905081810360008301526117f481611548565b9050919050565b600060208201905081810360008301526118148161158e565b9050919050565b60006020820190506118306000830184611623565b92915050565b600060608201905061184b6000830186611623565b818103602083015261185d8185611452565b905061186c6040830184611623565b949350505050565b60006040820190506118896000830185611623565b6118966020830184611623565b9392505050565b60006118a76118b8565b90506118b38282611ab5565b919050565b6000604051905090565b600067ffffffffffffffff8211156118dd576118dc611ba4565b5b6118e682611bd3565b9050602081019050919050565b6000819050602082019050919050565b600081519050919050565b600081519050919050565b6000602082019050919050565b600082825260208201905092915050565b600081905092915050565b600082825260208201905092915050565b600082825260208201905092915050565b600081905092915050565b600061197a82611a37565b915061198583611a37565b9250827fffffffffffffffffffffffffffffffffffffffffffffffffffffffffffffffff038211156119ba576119b9611b17565b5b828201905092915050565b60006119d082611a37565b91506119db83611a37565b9250828210156119ee576119ed611b17565b5b828203905092915050565b6000611a0482611a17565b9050919050565b60008115159050919050565b600073ffffffffffffffffffffffffffffffffffffffff82169050919050565b6000819050919050565b82818337600083830152505050565b60005b83811015611a6e578082015181840152602081019050611a53565b83811115611a7d576000848401525b50505050565b60006002820490506001821680611a9b57607f821691505b60208210811415611aaf57611aae611b75565b5b50919050565b611abe82611bd3565b810181811067ffffffffffffffff82111715611add57611adc611ba4565b5b80604052505050565b6000611af182611a37565b9150611afc83611a37565b925082611b0c57611b0b611b46565b5b828206905092915050565b7f4e487b7100000000000000000000000000000000000000000000000000000000600052601160045260246000fd5b7f4e487b7100000000000000000000000000000000000000000000000000000000600052601260045260246000fd5b7f4e487b7100000000000000000000000000000000000000000000000000000000600052602260045260246000fd5b7f4e487b7100000000000000000000000000000000000000000000000000000000600052604160045260246000fd5b6000601f19601f8301169050919050565b7f547279696e6720746f207769746864726177206d6f7265206d6f6e657920746860008201527f616e2074686520636f6e7472616374206861732e000000000000000000000000602082015250565b7f4661696c656420746f207769746864726177206d6f6e65792066726f6d20636f60008201527f6e74726163742e00000000000000000000000000000000000000000000000000602082015250565b7f43616e277420616464206475706c696361746520747261636b73000000000000600082015250565b7f43616e277420756e6c696b65206120747261636b20796f7520686176656e277460008201527f206c696b65642100000000000000000000000000000000000000000000000000602082015250565b7f43616e2774206c696b65206120747261636b20796f7527766520616c7265616460008201527f79206c696b656421000000000000000000000000000000000000000000000000602082015250565b50565b7f4d7573742077616974203130206d696e75746573206265747765656e2061646460008201527f696e6720616e6f7468657220747261636b730000000000000000000000000000602082015250565b611da4816119f9565b8114611daf57600080fd5b50565b611dbb81611a37565b8114611dc657600080fd5b5056fe47657474696e6720747261636b73207375626d697474656420627920616464726573732025732e54686572652061726520256420746f74616c20747261636b7320696e2074686520706c61796c697374200a436865636b696e6720776865746865722075736572202573206c696b657320747261636b2025642ea26469706673582212205a9217e51689c09a14d1ce36b6cfe2d860b2295ed5db408ae83de4b802af16f864736f6c63430008040033",
  "linkReferences": {},
  "deployedLinkReferences": {}
}